:020000040000FA
:100000000C9463000C948B000C948B000C948B006C
:100010000C948B000C948B000C948B000C948B0034
:100020000C948B000C948B000C948B000C948B0024
:100030000C948B000C948B000C948B000C948B0014
:100040000C9411060C948B000C94DF050C94B905EC
:100050000C948B000C948B000C948B000C948B00F4
:100060000C948B000C948B000000000024002700EF
:100070002A0000000000250028002B0000000000DE
:1000800023002600290004040404040404040202DA
:100090000202020203030303030301020408102007
:1000A0004080010204081020010204081020000012
:1000B0000008000201000003040700000000000027
:1000C000000063065B0611241FBECFEFD8E0DEBF41
:1000D000CDBF22E0A6E8B1E001C01D92A435B20771
:1000E000E1F711E0A0E0B1E0E0E7FAE102C005903D
:1000F0000D92A638B107D9F710E0C2E6D0E004C0EF
:100100002197FE010E94100BC136D107C9F70E944A
:10011000B5060C942B0D0C940000CF93DF93EC01EB
:100120002FB7F89480918B0190918C01A0918D0153
:10013000B0918E012FBF88879987AA87BB87E881F6
:10014000F9810284F385E02DCE01099597FF1EC049
:100150002FB7F89480918B0190918C01A0918D0123
:10016000B0918E012FBF488559856A857B85841B98
:10017000950BA60BB70B4C815D816E817F81841737
:100180009507A607B707D8F28FEF9FEFDF91CF91C2
:100190000895AF92BF92CF92DF92EF92FF920F93AA
:1001A0001F93CF93DF936C017B018B01040F151F0D
:1001B000EB015E01AE18BF08C017D10759F0699175
:1001C000D601ED91FC910190F081E02DC6010995D9
:1001D000892B79F7C501DF91CF911F910F91FF9086
:1001E000EF90DF90CF90BF90AF900895FC01538DBA
:1001F000448D252F30E0842F90E0821B930B541701
:1002000010F0CF96089501970895FC01918D828D8D
:10021000981761F0A28DAE0FBF2FB11D5D968C9126
:10022000928D9F5F9F73928F90E008958FEF9FEF65
:100230000895FC01918D828D981731F0828DE80F21
:10024000F11D858D90E008958FEF9FEF0895FC01DB
:10025000918D228D892F90E0805C9F4F821B9109A8
:100260008F73992708958FE891E00E94270121E07C
:10027000892B09F420E0822F089580E090E0892BFB
:1002800029F00E94330181110C9400000895FC01B3
:10029000A48DA80FB92FB11DA35ABF4F2C91848DE7
:1002A00090E001968F739927848FA689B7892C9344
:1002B000A089B1898C91837080648C93938D848D97
:1002C000981306C00288F389E02D80818F7D80839A
:1002D0000895EF92FF920F931F93CF93DF93EC015A
:1002E00081E0888F9B8D8C8D98131AC0E889F989DD
:1002F000808185FF15C09FB7F894EE89FF896083E0
:10030000E889F98980818370806480839FBF81E060
:1003100090E0DF91CF911F910F91FF90EF900895A2
:10032000F62E0B8D10E00F5F1F4F0F731127E02E7D
:100330008C8D8E110CC00FB607FCFACFE889F989B5
:10034000808185FFF5CFCE010E944701F1CFEB8D73
:10035000EC0FFD2FF11DE35AFF4FF0829FB7F89489
:100360000B8FEA89FB8980818062CFCFCF93DF93A7
:10037000EC01888D8823B9F0AA89BB89E889F989BD
:100380008C9185FD03C0808186FD0DC00FB607FCF2
:10039000F7CF8C9185FFF2CF808185FFEDCFCE0125
:1003A0000E944701E9CFDF91CF910895833081F01A
:1003B00028F4813099F08230A9F008958730A9F0AF
:1003C0008830C9F08430B1F4809180008F7D03C003
:1003D000809180008F7780938000089584B58F7717
:1003E00084BD089584B58F7DFBCF8091B0008F7759
:1003F0008093B00008958091B0008F7DF9CF1F9356
:10040000CF93DF93282F30E0F901E255FF4F84911D
:10041000F901E656FF4FD491F901EA57FF4FC49115
:10042000CC23A9F0162F81110E94D601EC2FF0E009
:10043000EE0FFF1FEE58FF4FA591B4918FB7F894C0
:10044000EC91111108C0D095DE23DC938FBFDF91B2
:10045000CF911F910895DE2BF8CFCF93DF9390E0DB
:10046000FC01E656FF4F24918A579F4FFC0184916F
:100470008823C9F090E0880F991FFC01E859FF4FCD
:10048000A591B491FC01EE58FF4FC591D491611133
:100490000DC09FB7F8948C91209582238C9388810E
:1004A000282328839FBFDF91CF910895623051F4B4
:1004B0009FB7F8943C91822F809583238C93E88199
:1004C0002E2BEFCF8FB7F894EC912E2B2C938FBF60
:1004D000EACFFB0101900020E9F73197AF01461BFD
:1004E000570BDC01ED91FC910280F381E02D099422
:1004F0004F925F926F927F928F929F92AF92BF9234
:10050000CF92DF92EF92FF920F931F93CF93DF93DF
:10051000CDB7DEB7A1970FB6F894DEBF0FBECDBF43
:100520008C016B01770FEE08FF08F7FE49C0DC0174
:10053000ED91FC910190F081E02D6DE209955C0157
:1005400022273327A9012C193D094E095F0919A259
:10055000FE01B1967F019AE0492E512C612C712C3D
:10056000CA01B901A30192010E94EE0A605DD701A0
:100570006E937D01211531054105510589F790E004
:1005800080E0109721F0BD01C8010E9469028A0D28
:100590009B1DA1960FB6F894DEBF0FBECDBFDF91B5
:1005A000CF911F910F91FF90EF90DF90CF90BF9070
:1005B000AF909F908F907F906F905F904F90089535
:1005C000A701960119A2FE01B1967F018AE0882E4B
:1005D000912CA12CB12CCA01B901A50194010E9452
:1005E000EE0A605DD7016E937D012115310541054D
:1005F000510589F790E080E0109759F2BD01C801DC
:100600000E946902C6CFFC0180819181009711F0A0
:100610000C94460A60E070E0CB010895CF93DF931D
:10062000DC0114962D913C911597232B79F0FB0159
:10063000CD91DC9160817181CE010E94110D0097F6
:1006400029F08C1B9D0BDF91CF9108958FEF9FEFC9
:10065000FACFFC0124813581232B39F421E0FB0101
:100660008081882349F020E007C0808191810E9429
:10067000010D21E0892BB9F7822F0895CB010E944B
:10068000030361157105E1F461E08EE00E94FF0152
:1006900061E08FE00E94FF0161E080E10E94FF01C4
:1006A00061E081E10E94FF0161E082E10E94FF01BF
:1006B00061E083E00E94FF0160E084E00C94FF01B0
:1006C00061307105B1F460E08EE00E94FF0161E0ED
:1006D0008FE00E94FF0161E080E10E94FF0160E085
:1006E00081E10E94FF0160E082E10E94FF0160E081
:1006F000E0CF62307105D1F461E08EE00E94FF012D
:1007000061E08FE00E94FF0160E080E10E94FF0154
:1007100061E081E10E94FF0161E082E10E94FF014E
:1007200060E083E00E94FF0161E0C7CF63307105A4
:1007300091F461E08EE00E94FF0161E08FE00E9491
:10074000FF0161E080E10E94FF0161E081E10E9420
:10075000FF0160E0E2CF6430710591F460E08EE06B
:100760000E94FF0161E08FE00E94FF0161E080E1F3
:100770000E94FF0160E081E10E94FF0160E025C06E
:100780006530710571F461E08EE00E94FF0160E068
:100790008FE00E94FF0161E080E10E94FF0161E0C3
:1007A000EACF66307105B1F461E08EE00E94FF018E
:1007B00060E08FE00E94FF0161E080E10E94FF01A4
:1007C00061E081E10E94FF0161E082E10E94FF019E
:1007D00061E0A7CF6730710511F461E075CF683033
:1007E000710531F461E08EE00E94FF0161E0E1CF2C
:1007F0006930710531F461E08EE00E94FF0161E033
:10080000C7CF08950F931F93CF93DF93EC01888197
:100810009981009759F02A813B812617370730F0DC
:1008200081E0DF91CF911F910F9108958B016F5F50
:100830007F4F0E943B0C009759F0998388831B835C
:100840000A832C813D81232B59F7FC011082E8CFCC
:1008500080E0E7CFEF92FF920F931F93CF93DF9348
:100860006115710541F480E0DF91CF911F910F91E7
:10087000FF90EF90089541155105B1F07B01EC0117
:100880000C811D81040F151FB8010E9402048823EA
:1008900051F3288139818C819D81B701820F931F8B
:1008A0000E940A0D1D830C8381E0DECFCF93DF937E
:1008B000EC0188819981009711F00E94B20B198296
:1008C00018821D821C821B821A82DF91CF910895AB
:1008D000CF93DF93EC01FB0101900020E9F7319702
:1008E000AF01461B570B0E942A04811103C0CE01A1
:1008F0000E945604CE01DF91CF910895CF93DF93EC
:10090000EC01FB0144815581608171810E942A04C0
:10091000811103C0CE010E945604CE01DF91CF9118
:100920000895EF92FF920F931F93CF93DF93EC0103
:100930007B018A01BA010E94020481110BC0CE0121
:100940000E945604CE01DF91CF911F910F91FF902D
:10095000EF9008951D830C83B701888199810E94CF
:100960000A0DF0CFEF92FF920F931F93CF93DF9377
:10097000CDB7DEB762970FB6F894DEBF0FBECDBF1E
:100980008C01CB01F8011182108213821282158230
:1009900014824AE09E012F5F3F4F7901B9010E9406
:1009A0006D0AF70101900020E9F73197AF014E1968
:1009B0005F09B701C8010E94910462960FB6F894CE
:1009C000DEBF0FBECDBFDF91CF911F910F91FF9082
:1009D000EF900895CF93DF93EC01FB018617970703
:1009E00049F0608171816115710541F04481558143
:1009F0000E949104CE01DF91CF9108950E94560488
:100A0000F9CF20912E0221110EC0BC018FE891E098
:100A100090932D0280932C0288E392E00E94EA04D6
:100A200081E080932E020895FC01118210821382CE
:100A3000128215821482FB0101900020E9F73197A0
:100A4000AF01461B570B0C949104AF92BF92CF920B
:100A5000DF92EF92FF920F931F93CF93DF937C016E
:100A60006B015A0189012417350720F48B2D590198
:100A7000042F182F62E471E0C7010E941405D6010B
:100A80001496CD91DC91AC16BD0620F50C171D0710
:100A900008F4E801D601ED91FC911197EC0FFD1FD0
:100AA000108110826D917C916A0D7B1D611571051D
:100AB000E9F0FB0101900020E9F73197AF01461BF7
:100AC000570BC7010E949104F60180819181C80FE4
:100AD000D91F1883C701DF91CF911F910F91FF900C
:100AE000EF90DF90CF90BF90AF900895C7010E9424
:100AF0005604EACFCF92DF92EF92FF920F931F93AB
:100B0000CF93DF9300D0CDB7DEB78C016B01E42E1D
:100B100062E471E00E941405C6010E948D000E2C53
:100B2000000CFF0897FD11C0E816F90671F08983E3
:100B30001A8241E050E0BE016F5F7F4FC8010E9402
:100B40002A04C6010E948D00EDCFC8010F900F90BE
:100B5000DF91CF911F910F91FF90EF90DF90CF9099
:100B60000895FC0180819181009711F00C94B20BE3
:100B700008951F920F920FB60F9211242F933F9357
:100B80004F935F936F937F938F939F93AF93BF9395
:100B9000EF93FF938FE891E00E944701FF91EF915F
:100BA000BF91AF919F918F917F916F915F914F9185
:100BB0003F912F910F900FBE0F901F9018951F928D
:100BC0000F920FB60F9211242F938F939F93EF9351
:100BD000FF93E0919F01F091A0018081E091A50138
:100BE000F091A60182FD1BC090818091A8018F5FCA
:100BF0008F732091A901821741F0E091A801F0E0E4
:100C0000E157FE4F958F8093A801FF91EF919F913F
:100C10008F912F910F900FBE0F901F90189580818C
:100C2000F4CF1F920F920FB60F9211242F933F9380
:100C30008F939F93AF93BF9380918B0190918C0181
:100C4000A0918D01B0918E0130918A0123E0230F94
:100C50002D3758F50196A11DB11D20938A0180936F
:100C60008B0190938C01A0938D01B0938E018091A4
:100C7000860190918701A0918801B0918901019628
:100C8000A11DB11D8093860190938701A0938801D7
:100C9000B0938901BF91AF919F918F913F912F9117
:100CA0000F900FBE0F901F90189526E8230F029605
:100CB000A11DB11DD2CF88E392E00E94B1058AE464
:100CC00092E00C94B105CF93DF93EFE8F1E013824B
:100CD000128288EE93E0A0E0B0E084839583A6833F
:100CE000B7838AE091E09183808385EC90E09587DB
:100CF000848784EC90E09787868780EC90E0918BE6
:100D0000808B81EC90E0938B828B82EC90E0958BD2
:100D1000848B86EC90E0978B868B118E128E138ECF
:100D2000148EEEE3F2E01282C4E1D0E0D483C383F8
:100D30001582168217821086118662E471E08AE4B9
:100D400092E00E941405ECE2F2E01282D483C383A5
:100D50001582168217821086118662E471E088E39C
:100D600092E0DF91CF910C941405CF93DF93CDB730
:100D7000DEB76E970FB6F894DEBF0FBECDBF789486
:100D800084B5826084BD84B5816084BD85B5826090
:100D900085BD85B5816085BD80916E008160809341
:100DA0006E001092810080918100826080938100AA
:100DB00080918100816080938100809180008160BA
:100DC000809380008091B10084608093B100809115
:100DD000B00081608093B00080917A00846080933D
:100DE0007A0080917A00826080937A0080917A0004
:100DF000816080937A0080917A00806880937A0085
:100E00001092C10061E08DE00E942D0260E083E15C
:100E10000E942D02E0919F01F091A00182E0808369
:100E2000E0919B01F0919C011082E0919D01F09175
:100E30009E0180E180831092A701E091A301F091CF
:100E4000A40186E08083E091A101F091A20180815C
:100E500080618083E091A101F091A201808188608E
:100E60008083E091A101F091A2018081806880835C
:100E7000E091A101F091A20180818F7D808384E1C6
:100E800090E0A0E0B0E08093930190939401A09350
:100E90009501B093960168E171E0CE0101960E9440
:100EA0001405CE0101960E940105CE0101960E9413
:100EB000B1058EE393E0909337028093360290E081
:100EC000E92E90E0F92E80912C0290912D02DC0108
:100ED000ED91FC910084F185E02D09951816190615
:100EE0000CF07BC060912C0270912D024FE3CE017B
:100EF00049960E947A0560912C0270912D024AE079
:100F0000CE0143960E947A0560E271E0CE014996D7
:100F10000E942903882309F44CC000912C021091EF
:100F20002D0266E070E0CE010D960E94B20464E1ED
:100F300070E0CE0107960E94B20466E271E0CE0135
:100F400001960E94140568E372E0CE0101960E94AA
:100F50007E046FE371E00E946804BE01695F7F4F09
:100F60000E947E046FE371E00E946804BE01635F2B
:100F70007F4F0E947E0461E471E00E946804FC01DE
:100F80004481558160817181D801ED91FC9102808D
:100F9000F381E02DC8010995CE0101960E94B105AB
:100FA000CE0107960E94B105CE010D960E94B105B3
:100FB0000CC063E471E0CE0149960E9429038823A6
:100FC00009F4C4C081E080933102CE0143960E94AF
:100FD000B105CE0149960E94B1058FB7F894809073
:100FE0008B0190908C01A0908D01B0908E018FBFED
:100FF0008091320290913302A0913402B091350277
:10100000B501A401481B590B6A0B7B0B80912F0281
:1010100090913002092E000CAA0BBB0B8417950788
:10102000A607B70708F086C080913102882309F42B
:1010300081C067E771E080912C0290912D020E949F
:10104000690210E000E0C0902C02D0902D02F8015F
:10105000E255FF4F8491F801E656FF4F7490F80176
:10106000EA57FF4F649060E070E0662089F08111DC
:101070000E94D601E62DF0E0EE0FFF1FE458FF4F6F
:10108000A591B491EC917E2261E070E009F460E0FA
:10109000C6010E9478020F5F1F4F0431110599F6B7
:1010A00061E471E080912C0290912D020E9469020E
:1010B0006EE771E080912C0290912D020E946902EE
:1010C00010E020912C0230912D02812F80648093BA
:1010D0007C0090917A00906490937A0080917A00DD
:1010E00086FDFCCF8091780060917900762F682F83
:1010F000C9010E94780280912C0290912D02DC019E
:10110000ED91FC910190F081E02D63E209951F5F64
:101110001630B9F661E471E080912C0290912D02B5
:101120000E9469028092320290923302A0923402AD
:10113000B0923502E114F10409F4C5CE0E943301E6
:10114000882309F4BCCE0E940000B9CE69E471E0A6
:10115000CE0149960E942903882319F0109231028A
:1011600034CF6FE471E0CE0149960E9429038823B1
:1011700049F0CE0143960E940303709330026093BE
:101180002F0223CF65E571E0CE0149960E94290325
:10119000882309F456C06CE771E0CE0101960E94E5
:1011A0001405BE016F5F7F4FCE0143960E940E0370
:1011B0008C01CE0101960E94B1050F3F100709F482
:1011C00004CF980150E040E0BE016D5E7F4FCE013C
:1011D00001960E942505CE0101960E940303D62E9A
:1011E000CE0101960E94B1052F89388DA8014F5F6D
:1011F0005F4FBE016D5E7F4FCE0101960E942505B7
:101200006BE571E0CE0101960E94290360E0811137
:1012100012C06EE571E0CE0101960E94290361E0E3
:10122000811109C062E671E0CE0101960E94290396
:10123000882321F062E08D2D0E942D02CE010196BF
:10124000B5CE67E671E0CE0149960E942903882356
:1012500009F443C06CE771E0CE0101960E941405C9
:10126000BE016F5F7F4FCE0143960E940E038C013B
:10127000CE0101960E94B1050F3F100709F4A5CEDB
:10128000980150E040E0BE016D5E7F4FCE010196B7
:101290000E942505CE0101960E940303D62ECE01A1
:1012A00001960E94B1052F89388DA8014F5F5F4FCD
:1012B000BE016D5E7F4FCE0101960E942505CE01D5
:1012C00001960E940303162FCE0101960E94B105DC
:1012D000612F8D2D0E94FF0178CE6DE671E0CE0169
:1012E00049960E942903882309F49BC06CE771E0AA
:1012F000CE0101960E941405BE016F5F7F4FCE01A3
:1013000043960E940E036C01CE0101960E94B10526
:10131000FFEFCF16DF0609F458CE960150E040E00B
:10132000BE016D5E7F4FCE0101960E942505CE0164
:1013300001960E940303062FCE0101960E94B1057B
:101340002F89388DA6014F5F5F4FBE016D5E7F4FC5
:10135000CE0101960E942505CE0101960E9403034D
:10136000162FB72EC62ED72ECE0101960E94B1059C
:1013700061E0802F0E942D02C114D10419F460E0B5
:10138000802FA8CF8FEFC816D10411F461E0F8CFF9
:10139000E02FF0E0E255FF4FE491E33031F148F403
:1013A000E130C9F0E230E1F0A0E8CA16D10474F7E8
:1013B000E6CFE73031F1E83061F1E430A9F7809110
:1013C0008000806280938000812F9B2D90938B0002
:1013D00080938A00FACD84B5806884BD17BDF5CDB1
:1013E00084B5806284BD18BDF0CD80918000806896
:1013F00080938000812F9B2D90938900809388009B
:10140000E4CD8091B00080688093B0001093B30069
:10141000DCCD8091B00080628093B0001093B40066
:10142000D4CD63E771E0CE0149960E942903882359
:1014300009F4CBCD009136021091370218861F8235
:101440001A8619861C861B86BE016D5E7F4FCE01F3
:1014500007960E94EA041A8219821C821B821E824D
:101460001D82BE01675E7F4FCE0101960E94EA0495
:10147000BE01695F7F4FCE010196F8010995CE014B
:1014800001960E94B105CE01079690CD1F93FC01F5
:1014900099278827BC01E89411911032E9F319309B
:1014A00010F01E30C8F31B3251F01D3249F468941D
:1014B00006C00E94780A610F711D811D911D119156
:1014C00010531A30B0F33EF4909580957095619565
:1014D0007F4F8F4F9F4F1F910895BB274A3031F4A4
:1014E000992322F4BDE2909581959F4F0C948E0A2A
:1014F000592F482F372F262F660F771F881F991FC8
:10150000660F771F881F991F620F731F841F951F17
:10151000660F771F881F991F0895BB27FB0155276A
:10152000AA27880F991FAA1FA41710F0A41B839540
:101530005051B9F7A05DAA3308F0A95DA1930097B7
:1015400079F7B111B1931192CB010C94A70ADC0188
:10155000FC01672F71917723E1F7329704C07C91EA
:101560006D9370836291AE17BF07C8F308952F92F1
:101570003F924F925F926F927F928F929F92AF9223
:10158000BF92CF92DF92EF92FF920F931F93CF9370
:10159000DF93CDB7DEB7CA1BDB0B0FB6F894DEBF07
:1015A0000FBECDBF09942A88398848885F846E842D
:1015B0007D848C849B84AA84B984C884DF80EE8077
:1015C000FD800C811B81AA81B981CE0FD11D0FB680
:1015D000F894DEBF0FBECDBFED010895A1E21A2E33
:1015E000AA1BBB1BFD010DC0AA1FBB1FEE1FFF1FC7
:1015F000A217B307E407F50720F0A21BB30BE40B17
:10160000F50B661F771F881F991F1A9469F760955D
:101610007095809590959B01AC01BD01CF01089517
:10162000EE0FFF1F0590F491E02D09940F931F9387
:10163000CF93DF938230910510F482E090E0E09147
:101640005202F091530230E020E0B0E0A0E0309789
:1016500099F42115310509F44AC0281B390B2430AF
:101660003105D8F58A819B816115710589F1FB01EE
:1016700093838283FE0111C04081518102811381D5
:1016800048175907E0F04817590799F4109761F087
:1016900012960C93129713961C933296CF01DF91FA
:1016A000CF911F910F91089500935202109353020E
:1016B000F4CF2115310551F04217530738F0A90135
:1016C000DB019A01BD01DF01F801C1CFEF01F9CFC4
:1016D0009093530280935202CDCFFE01E20FF31F8D
:1016E000819391932250310939832883D7CF209158
:1016F000500230915102232B41F42091020130918C
:101700000301309351022093500220910001309147
:1017100001012115310541F42DB73EB74091040177
:1017200050910501241B350BE0915002F0915102BC
:10173000E217F307A0F42E1B3F0B2817390778F0A8
:10174000AC014E5F5F4F2417350748F04E0F5F1F07
:101750005093510240935002819391939FCFF0E0B8
:10176000E0E09CCFCF93DF930097E9F0FC01329744
:1017700013821282A0915202B0915302ED0130E027
:1017800020E01097A1F420813181820F931F2091D6
:101790005002309151022817390709F061C0F093C7
:1017A0005102E0935002DF91CF910895EA01CE17E4
:1017B000DF07E8F54A815B819E0141155105B1F7CC
:1017C000E901FB83EA8349915991C40FD51FEC17B6
:1017D000FD0761F4808191810296840F951FE901D4
:1017E00099838883828193819B838A83F0E0E0E000
:1017F00012968D919C9113970097B9F52D913C917C
:101800001197CD010296820F931F209150023091C3
:1018100051022817390739F6309751F510925302C3
:1018200010925202B0935102A0935002BCCFD383C6
:10183000C28340815181840F951FC817D90761F475
:101840004E5F5F4F88819981480F591F51834083B4
:101850008A819B81938382832115310509F0B0CF62
:10186000F0935302E09352029ECFFD01DC01C0CF02
:1018700013821282D7CFB0E0A0E0E1E4FCE00C9448
:10188000B90A8C01009751F4CB010E94160B8C0110
:10189000C801CDB7DEB7E0E10C94D50AFC01E60F34
:1018A000F71F9C0122503109E217F30708F49DC08D
:1018B000D901CD91DC911197C617D70798F0C530A3
:1018C000D10530F3CE0104978617970708F3C61B9E
:1018D000D70B2297C193D1936D937C93CF010E9434
:1018E000B20BD6CF5B01AC1ABD0A4C018C0E9D1E0B
:1018F000A0915202B0915302512C412CF12CE12CB9
:10190000109731F5809150029091510288159905F8
:1019100009F05CC04616570608F058C080910001D7
:1019200090910101009741F48DB79EB74091040159
:1019300050910501841B950BE817F90708F055C075
:10194000F0935102E0935002F90171836083A0CFBC
:101950008D919C91119712966C90129713967C9092
:101960001397A815B90559F56C0142E0C40ED11CB6
:10197000CA14DB0420F1AC014A195B09DA011296A2
:10198000159780F06282738251834083D9016D93F1
:101990007C93E114F10471F0D7011396FC93EE935C
:1019A000129776CF22968C0F9D1FF9019183808329
:1019B000F301EFCFF0935302E093520269CF481640
:1019C000590608F42C017D01D3019ACFCB010E9466
:1019D000160B7C01009749F0AE01B8010E94F80C8B
:1019E000C8010E94B20B870153CF10E000E050CF36
:1019F000FB01DC0102C001900D9241505040D8F72C
:101A00000895FB01DC018D91019080190110D9F33B
:101A1000990B0895FB01DC0101900D920020E1F784
:101A20000895FB0151915523A9F0BF01DC014D91AF
:101A300045174111E1F759F4CD010190002049F01B
:101A40004D9140154111C9F3FB014111EFCF81E0E8
:101A500090E00197089510E0C2E6D0E004C0FE01D6
:101A60000E94100B2196C336D107C9F7F894FFCF17
:101A7000000054028000000000006901C900F60067
:101A8000B6012701050119014E756D62657273007B
:101A90006964656E7400746E6564693A4D4372657D
:101AA00061746F72204C696E6B2028312E31293B96
:101AB000000A007073747274007073746F70007039
:101AC000726174650070696E6D6400696E006F7597
:101AD0007400696E5F7000646977727400616E777C
:101AE0007274006D73670064696772643A00616EB6
:061AF0006C72643A000074
:107E0000112484B714BE81FFF0D085E080938100F7
:107E100082E08093C00088E18093C10086E0809377
:107E2000C20080E18093C4008EE0C9D0259A86E02C
:107E300020E33CEF91E0309385002093840096BBD3
:107E4000B09BFECF1D9AA8958150A9F7CC24DD24C4
:107E500088248394B5E0AB2EA1E19A2EF3E0BF2EE7
:107E6000A2D0813461F49FD0082FAFD0023811F036
:107E7000013811F484E001C083E08DD089C08234E0
:107E800011F484E103C0853419F485E0A6D080C0E4
:107E9000853579F488D0E82EFF2485D0082F10E0AE
:107EA000102F00270E291F29000F111F8ED06801E7
:107EB0006FC0863521F484E090D080E0DECF843638
:107EC00009F040C070D06FD0082F6DD080E0C81688
:107ED00080E7D80618F4F601B7BEE895C0E0D1E017
:107EE00062D089930C17E1F7F0E0CF16F0E7DF06D8
:107EF00018F0F601B7BEE89568D007B600FCFDCFD4
:107F0000A601A0E0B1E02C9130E011968C91119780
:107F100090E0982F8827822B932B1296FA010C0160
:107F200087BEE89511244E5F5F4FF1E0A038BF0790
:107F300051F7F601A7BEE89507B600FCFDCF97BE46
:107F4000E89526C08437B1F42ED02DD0F82E2BD052
:107F50003CD0F601EF2C8F010F5F1F4F84911BD097
:107F6000EA94F801C1F70894C11CD11CFA94CF0C13
:107F7000D11C0EC0853739F428D08EE10CD085E9AC
:107F80000AD08FE07ACF813511F488E018D01DD067
:107F900080E101D065CF982F8091C00085FFFCCF94
:107FA0009093C60008958091C00087FFFCCF809118
:107FB000C00084FD01C0A8958091C6000895E0E648
:107FC000F0E098E1908380830895EDDF803219F02E
:107FD00088E0F5DFFFCF84E1DECF1F93182FE3DFCA
:107FE0001150E9F7F2DF1F91089580E0E8DFEE27F6
:047FF000FF270994CA
:027FFE00040479
:00000001FF
